{
  "contractName": "dapps",
  "abi": [
    {
      "inputs": [
        {
          "internalType": "contract Token",
          "name": "_token",
          "type": "address"
        }
      ],
      "stateMutability": "nonpayable",
      "type": "constructor"
    },
    {
      "stateMutability": "payable",
      "type": "fallback",
      "payable": true
    },
    {
      "inputs": [],
      "name": "CB",
      "outputs": [
        {
          "internalType": "address",
          "name": "",
          "type": "address"
        }
      ],
      "stateMutability": "view",
      "type": "function",
      "constant": true
    },
    {
      "inputs": [
        {
          "internalType": "address",
          "name": "",
          "type": "address"
        }
      ],
      "name": "confirmations",
      "outputs": [
        {
          "internalType": "uint256",
          "name": "size",
          "type": "uint256"
        }
      ],
      "stateMutability": "view",
      "type": "function",
      "constant": true
    },
    {
      "inputs": [
        {
          "internalType": "address",
          "name": "",
          "type": "address"
        }
      ],
      "name": "pendings",
      "outputs": [
        {
          "internalType": "uint256",
          "name": "size",
          "type": "uint256"
        }
      ],
      "stateMutability": "view",
      "type": "function",
      "constant": true
    },
    {
      "inputs": [
        {
          "internalType": "uint256",
          "name": "",
          "type": "uint256"
        }
      ],
      "name": "security",
      "outputs": [
        {
          "internalType": "contract Security",
          "name": "",
          "type": "address"
        }
      ],
      "stateMutability": "view",
      "type": "function",
      "constant": true
    },
    {
      "stateMutability": "payable",
      "type": "receive",
      "payable": true
    },
    {
      "inputs": [
        {
          "internalType": "string",
          "name": "_name",
          "type": "string"
        },
        {
          "internalType": "string",
          "name": "_symbol",
          "type": "string"
        }
      ],
      "name": "AddSecurity",
      "outputs": [],
      "stateMutability": "nonpayable",
      "type": "function"
    },
    {
      "inputs": [],
      "name": "SecurityLength",
      "outputs": [
        {
          "internalType": "uint256",
          "name": "",
          "type": "uint256"
        }
      ],
      "stateMutability": "view",
      "type": "function",
      "constant": true
    },
    {
      "inputs": [
        {
          "internalType": "uint256",
          "name": "node",
          "type": "uint256"
        }
      ],
      "name": "RemoveConfirmPending",
      "outputs": [],
      "stateMutability": "nonpayable",
      "type": "function"
    },
    {
      "inputs": [
        {
          "internalType": "uint256",
          "name": "amount",
          "type": "uint256"
        },
        {
          "internalType": "uint256",
          "name": "price",
          "type": "uint256"
        },
        {
          "internalType": "address",
          "name": "Buyer",
          "type": "address"
        },
        {
          "internalType": "uint256",
          "name": "id",
          "type": "uint256"
        }
      ],
      "name": "RequestSellSecurity",
      "outputs": [],
      "stateMutability": "nonpayable",
      "type": "function"
    },
    {
      "inputs": [
        {
          "internalType": "uint256",
          "name": "node",
          "type": "uint256"
        }
      ],
      "name": "GetRequest",
      "outputs": [
        {
          "internalType": "uint256",
          "name": "",
          "type": "uint256"
        },
        {
          "internalType": "address",
          "name": "",
          "type": "address"
        },
        {
          "internalType": "address",
          "name": "",
          "type": "address"
        },
        {
          "internalType": "uint256",
          "name": "",
          "type": "uint256"
        },
        {
          "internalType": "uint256",
          "name": "",
          "type": "uint256"
        },
        {
          "internalType": "bytes32",
          "name": "",
          "type": "bytes32"
        },
        {
          "internalType": "string",
          "name": "",
          "type": "string"
        }
      ],
      "stateMutability": "view",
      "type": "function",
      "constant": true
    },
    {
      "inputs": [
        {
          "internalType": "uint256",
          "name": "node",
          "type": "uint256"
        }
      ],
      "name": "CancelRequest",
      "outputs": [],
      "stateMutability": "nonpayable",
      "type": "function"
    },
    {
      "inputs": [
        {
          "internalType": "uint256",
          "name": "node",
          "type": "uint256"
        }
      ],
      "name": "RejectRequest",
      "outputs": [],
      "stateMutability": "nonpayable",
      "type": "function"
    },
    {
      "inputs": [
        {
          "internalType": "uint256",
          "name": "node",
          "type": "uint256"
        }
      ],
      "name": "ConfirmRequest",
      "outputs": [],
      "stateMutability": "nonpayable",
      "type": "function"
    },
    {
      "inputs": [
        {
          "internalType": "uint256",
          "name": "node",
          "type": "uint256"
        },
        {
          "internalType": "address",
          "name": "from",
          "type": "address"
        }
      ],
      "name": "nextConfirmations",
      "outputs": [
        {
          "internalType": "bool",
          "name": "",
          "type": "bool"
        },
        {
          "internalType": "uint256",
          "name": "",
          "type": "uint256"
        }
      ],
      "stateMutability": "view",
      "type": "function",
      "constant": true
    },
    {
      "inputs": [
        {
          "internalType": "uint256",
          "name": "node",
          "type": "uint256"
        },
        {
          "internalType": "address",
          "name": "from",
          "type": "address"
        }
      ],
      "name": "nextPendings",
      "outputs": [
        {
          "internalType": "bool",
          "name": "",
          "type": "bool"
        },
        {
          "internalType": "uint256",
          "name": "",
          "type": "uint256"
        }
      ],
      "stateMutability": "view",
      "type": "function",
      "constant": true
    },
    {
      "inputs": [
        {
          "internalType": "address",
          "name": "to",
          "type": "address"
        },
        {
          "internalType": "uint256",
          "name": "amount",
          "type": "uint256"
        }
      ],
      "name": "issuance",
      "outputs": [],
      "stateMutability": "nonpayable",
      "type": "function"
    },
    {
      "inputs": [
        {
          "internalType": "address",
          "name": "to",
          "type": "address"
        },
        {
          "internalType": "uint256",
          "name": "amount",
          "type": "uint256"
        },
        {
          "internalType": "uint256",
          "name": "id",
          "type": "uint256"
        }
      ],
      "name": "issuanceSecurity",
      "outputs": [],
      "stateMutability": "nonpayable",
      "type": "function"
    },
    {
      "inputs": [
        {
          "internalType": "uint256",
          "name": "amount",
          "type": "uint256"
        }
      ],
      "name": "redemption",
      "outputs": [],
      "stateMutability": "nonpayable",
      "type": "function"
    },
    {
      "inputs": [
        {
          "internalType": "uint256",
          "name": "amount",
          "type": "uint256"
        },
        {
          "internalType": "uint256",
          "name": "id",
          "type": "uint256"
        }
      ],
      "name": "redemptionSecurity",
      "outputs": [],
      "stateMutability": "nonpayable",
      "type": "function"
    },
    {
      "inputs": [
        {
          "internalType": "address",
          "name": "to",
          "type": "address"
        },
        {
          "internalType": "uint256",
          "name": "amount",
          "type": "uint256"
        }
      ],
      "name": "transfer",
      "outputs": [],
      "stateMutability": "nonpayable",
      "type": "function"
    },
    {
      "inputs": [
        {
          "internalType": "address",
          "name": "to",
          "type": "address"
        },
        {
          "internalType": "uint256",
          "name": "amount",
          "type": "uint256"
        },
        {
          "internalType": "uint256",
          "name": "id",
          "type": "uint256"
        }
      ],
      "name": "transferSecurity",
      "outputs": [],
      "stateMutability": "nonpayable",
      "type": "function"
    },
    {
      "inputs": [
        {
          "internalType": "address",
          "name": "newCB",
          "type": "address"
        }
      ],
      "name": "passCentralBankRole",
      "outputs": [],
      "stateMutability": "nonpayable",
      "type": "function"
    }
  ],
  "bytecode": "0x60806040523480156200001157600080fd5b5060405162005c7038038062005c708339818101604052810190620000379190620000d7565b80600360006101000a81548173ffffffffffffffffffffffffffffffffffffffff021916908373ffffffffffffffffffffffffffffffffffffffff16021790555033600560006101000a81548173ffffffffffffffffffffffffffffffffffffffff021916908373ffffffffffffffffffffffffffffffffffffffff1602179055505062000165565b600081519050620000d1816200014b565b92915050565b600060208284031215620000ea57600080fd5b6000620000fa84828501620000c0565b91505092915050565b600062000110826200012b565b9050919050565b6000620001248262000103565b9050919050565b600073ffffffffffffffffffffffffffffffffffffffff82169050919050565b620001568162000117565b81146200016257600080fd5b50565b615afb80620001756000396000f3fe6080604052600436106200014b5760003560e01c80639b37031711620000bb578063bfc839371162000079578063bfc83937146200047c578063cd44eed014620004aa578063cf37268614620004ef578063f6f5218e146200051d578063f82d5e6b146200054b578063fbb4588f146200057b5762000153565b80639b370317146200034d578063a110acc61462000397578063a826ae1e14620003c5578063a9059cbb1462000409578063bb68c85314620004375762000153565b806354811f5a116200010957806354811f5a146200025157806359526159146200027f5780636e19368014620002ad5780638e620b4914620002f1578063964b7303146200031f5762000153565b80630b85ccbc1462000155578063201d6f19146200018357806321bd249b14620001b15780634a1dc09214620001df5780634ecb35c4146200020d5762000153565b366200015357005b005b3480156200016257600080fd5b506200018160048036038101906200017b91906200308c565b620005ab565b005b3480156200019057600080fd5b50620001af6004803603810190620001a9919062003198565b620006a7565b005b348015620001be57600080fd5b50620001dd6004803603810190620001d79190620030ff565b620009f5565b005b348015620001ec57600080fd5b506200020b6004803603810190620002059190620030ff565b62000f6b565b005b3480156200021a57600080fd5b5062000239600480360381019062000233919062002f58565b620011ef565b60405162000248919062003554565b60405180910390f35b3480156200025e57600080fd5b506200027d6004803603810190620002779190620030ff565b6200120d565b005b3480156200028c57600080fd5b50620002ab6004803603810190620002a5919062002fc5565b620013aa565b005b348015620002ba57600080fd5b50620002d96004803603810190620002d3919062002f58565b62001625565b604051620002e8919062003554565b60405180910390f35b348015620002fe57600080fd5b506200031d6004803603810190620003179190620031d9565b62001643565b005b3480156200032c57600080fd5b506200034b6004803603810190620003459190620030ff565b620018b3565b005b3480156200035a57600080fd5b50620003796004803603810190620003739190620030ff565b62001c25565b6040516200038e979695949392919062003571565b60405180910390f35b348015620003a457600080fd5b50620003c36004803603810190620003bd919062002f58565b62001f65565b005b348015620003d257600080fd5b50620003f16004803603810190620003eb9190620030ff565b6200203c565b60405162000400919062003452565b60405180910390f35b3480156200041657600080fd5b506200043560048036038101906200042f919062002f84565b6200207c565b005b3480156200044457600080fd5b506200046360048036038101906200045d919062003157565b62002270565b6040516200047392919062003425565b60405180910390f35b3480156200048957600080fd5b50620004a86004803603810190620004a2919062002fc5565b620022d1565b005b348015620004b757600080fd5b50620004d66004803603810190620004d0919062003157565b6200243f565b604051620004e692919062003425565b60405180910390f35b348015620004fc57600080fd5b506200051b6004803603810190620005159190620030ff565b620024a0565b005b3480156200052a57600080fd5b5062000549600480360381019062000543919062002f84565b62002812565b005b3480156200055857600080fd5b50620005636200293c565b6040516200057291906200339e565b60405180910390f35b3480156200058857600080fd5b506200059362002962565b604051620005a2919062003554565b60405180910390f35b600560009054906101000a900473ffffffffffffffffffffffffffffffffffffffff1673ffffffffffffffffffffffffffffffffffffffff163373ffffffffffffffffffffffffffffffffffffffff16146200060657600080fd5b60048282604051620006189062002da5565b620006259291906200346f565b604051809103906000f08015801562000642573d6000803e3d6000fd5b509080600181540180825580915050600190039060005260206000200160009091909190916101000a81548173ffffffffffffffffffffffffffffffffffffffff021916908373ffffffffffffffffffffffffffffffffffffffff1602179055505050565b60048181548110620006e2577f4e487b7100000000000000000000000000000000000000000000000000000000600052603260045260246000fd5b9060005260206000200160009054906101000a900473ffffffffffffffffffffffffffffffffffffffff1673ffffffffffffffffffffffffffffffffffffffff1663095ea7b330846040518363ffffffff1660e01b815260040162000749929190620033f8565b602060405180830381600087803b1580156200076457600080fd5b505af115801562000779573d6000803e3d6000fd5b505050506040513d601f19601f820116820180604052508101906200079f91906200301b565b620007e1576040517f08c379a0000000000000000000000000000000000000000000000000000000008152600401620007d890620034ee565b60405180910390fd5b600481815481106200081c577f4e487b7100000000000000000000000000000000000000000000000000000000600052603260045260246000fd5b9060005260206000200160009054906101000a900473ffffffffffffffffffffffffffffffffffffffff1673ffffffffffffffffffffffffffffffffffffffff166323b872dd3330856040518463ffffffff1660e01b81526004016200088593929190620033bb565b602060405180830381600087803b158015620008a057600080fd5b505af1158015620008b5573d6000803e3d6000fd5b505050506040513d601f19601f82011682018060405250810190620008db91906200301b565b6200091d576040517f08c379a00000000000000000000000000000000000000000000000000000000081526004016200091490620034aa565b60405180910390fd5b6004818154811062000958577f4e487b7100000000000000000000000000000000000000000000000000000000600052603260045260246000fd5b9060005260206000200160009054906101000a900473ffffffffffffffffffffffffffffffffffffffff1673ffffffffffffffffffffffffffffffffffffffff166342966c68836040518263ffffffff1660e01b8152600401620009bd919062003554565b600060405180830381600087803b158015620009d857600080fd5b505af1158015620009ed573d6000803e3d6000fd5b505050505050565b600060018262000a069190620036cd565b8154811062000a3e577f4e487b7100000000000000000000000000000000000000000000000000000000600052603260045260246000fd5b906000526020600020906006020160000160009054906101000a900473ffffffffffffffffffffffffffffffffffffffff1673ffffffffffffffffffffffffffffffffffffffff163373ffffffffffffffffffffffffffffffffffffffff161462000aa857600080fd5b62000ab3816200296f565b600060018262000ac49190620036cd565b8154811062000afc577f4e487b7100000000000000000000000000000000000000000000000000000000600052603260045260246000fd5b906000526020600020906006020160030154600360009054906101000a900473ffffffffffffffffffffffffffffffffffffffff1673ffffffffffffffffffffffffffffffffffffffff166370a08231336040518263ffffffff1660e01b815260040162000b6b91906200339e565b60206040518083038186803b15801562000b8457600080fd5b505afa15801562000b99573d6000803e3d6000fd5b505050506040513d601f19601f8201168201806040525081019062000bbf91906200312b565b1062000f5c5762000ca5600060018362000bda9190620036cd565b8154811062000c12577f4e487b7100000000000000000000000000000000000000000000000000000000600052603260045260246000fd5b906000526020600020906006020160010160009054906101000a900473ffffffffffffffffffffffffffffffffffffffff16600060018462000c559190620036cd565b8154811062000c8d577f4e487b7100000000000000000000000000000000000000000000000000000000600052603260045260246000fd5b9060005260206000209060060201600301546200207c565b6004600060018362000cb89190620036cd565b8154811062000cf0577f4e487b7100000000000000000000000000000000000000000000000000000000600052603260045260246000fd5b9060005260206000209060060201600401548154811062000d3a577f4e487b7100000000000000000000000000000000000000000000000000000000600052603260045260246000fd5b9060005260206000200160009054906101000a900473ffffffffffffffffffffffffffffffffffffffff1673ffffffffffffffffffffffffffffffffffffffff1663a9059cbb600060018462000d919190620036cd565b8154811062000dc9577f4e487b7100000000000000000000000000000000000000000000000000000000600052603260045260246000fd5b906000526020600020906006020160000160009054906101000a900473ffffffffffffffffffffffffffffffffffffffff16600060018562000e0c9190620036cd565b8154811062000e44577f4e487b7100000000000000000000000000000000000000000000000000000000600052603260045260246000fd5b9060005260206000209060060201600201546040518363ffffffff1660e01b815260040162000e75929190620033f8565b602060405180830381600087803b15801562000e9057600080fd5b505af115801562000ea5573d6000803e3d6000fd5b505050506040513d601f19601f8201168201806040525081019062000ecb91906200301b565b507f7375636365737300000000000000000000000000000000000000000000000000600060018362000efe9190620036cd565b8154811062000f36577f4e487b7100000000000000000000000000000000000000000000000000000000600052603260045260246000fd5b90600052602060002090600602016005018190555062000f56816200120d565b62000f68565b62000f6781620024a0565b5b50565b600360009054906101000a900473ffffffffffffffffffffffffffffffffffffffff1673ffffffffffffffffffffffffffffffffffffffff1663095ea7b330836040518363ffffffff1660e01b815260040162000fca929190620033f8565b602060405180830381600087803b15801562000fe557600080fd5b505af115801562000ffa573d6000803e3d6000fd5b505050506040513d601f19601f820116820180604052508101906200102091906200301b565b62001062576040517f08c379a00000000000000000000000000000000000000000000000000000000081526004016200105990620034ee565b60405180910390fd5b600360009054906101000a900473ffffffffffffffffffffffffffffffffffffffff1673ffffffffffffffffffffffffffffffffffffffff166323b872dd3330846040518463ffffffff1660e01b8152600401620010c393929190620033bb565b602060405180830381600087803b158015620010de57600080fd5b505af1158015620010f3573d6000803e3d6000fd5b505050506040513d601f19601f820116820180604052508101906200111991906200301b565b6200115b576040517f08c379a00000000000000000000000000000000000000000000000000000000081526004016200115290620034aa565b60405180910390fd5b600360009054906101000a900473ffffffffffffffffffffffffffffffffffffffff1673ffffffffffffffffffffffffffffffffffffffff166342966c68826040518263ffffffff1660e01b8152600401620011b8919062003554565b600060405180830381600087803b158015620011d357600080fd5b505af1158015620011e8573d6000803e3d6000fd5b5050505050565b60016020528060005260406000206000915090508060000154905081565b620012d9816001600080600186620012269190620036cd565b815481106200125e577f4e487b7100000000000000000000000000000000000000000000000000000000600052603260045260246000fd5b906000526020600020906006020160000160009054906101000a900473ffffffffffffffffffffffffffffffffffffffff1673ffffffffffffffffffffffffffffffffffffffff1673ffffffffffffffffffffffffffffffffffffffff16815260200190815260200160002062002a3190919063ffffffff16565b50620013a6816002600080600186620012f39190620036cd565b815481106200132b577f4e487b7100000000000000000000000000000000000000000000000000000000600052603260045260246000fd5b906000526020600020906006020160010160009054906101000a900473ffffffffffffffffffffffffffffffffffffffff1673ffffffffffffffffffffffffffffffffffffffff1673ffffffffffffffffffffffffffffffffffffffff16815260200190815260200160002062002a3190919063ffffffff16565b5050565b60048181548110620013e5577f4e487b7100000000000000000000000000000000000000000000000000000000600052603260045260246000fd5b9060005260206000200160009054906101000a900473ffffffffffffffffffffffffffffffffffffffff1673ffffffffffffffffffffffffffffffffffffffff1663095ea7b330846040518363ffffffff1660e01b81526004016200144c929190620033f8565b602060405180830381600087803b1580156200146757600080fd5b505af11580156200147c573d6000803e3d6000fd5b505050506040513d601f19601f82011682018060405250810190620014a291906200301b565b620014e4576040517f08c379a0000000000000000000000000000000000000000000000000000000008152600401620014db90620034ee565b60405180910390fd5b600481815481106200151f577f4e487b7100000000000000000000000000000000000000000000000000000000600052603260045260246000fd5b9060005260206000200160009054906101000a900473ffffffffffffffffffffffffffffffffffffffff1673ffffffffffffffffffffffffffffffffffffffff166323b872dd3385856040518463ffffffff1660e01b81526004016200158893929190620033bb565b602060405180830381600087803b158015620015a357600080fd5b505af1158015620015b8573d6000803e3d6000fd5b505050506040513d601f19601f82011682018060405250810190620015de91906200301b565b62001620576040517f08c379a0000000000000000000000000000000000000000000000000000000008152600401620016179062003510565b60405180910390fd5b505050565b60026020528060005260406000206000915090508060000154905081565b62001650308583620013aa565b6200165a62002db3565b82816000019073ffffffffffffffffffffffffffffffffffffffff16908173ffffffffffffffffffffffffffffffffffffffff168152505033816020019073ffffffffffffffffffffffffffffffffffffffff16908173ffffffffffffffffffffffffffffffffffffffff16815250508481604001818152505083816060018181525050818160800181815250507f70656e64696e67000000000000000000000000000000000000000000000000008160a0018181525050600081908060018154018082558091505060019003906000526020600020906006020160009091909190915060008201518160000160006101000a81548173ffffffffffffffffffffffffffffffffffffffff021916908373ffffffffffffffffffffffffffffffffffffffff16021790555060208201518160010160006101000a81548173ffffffffffffffffffffffffffffffffffffffff021916908373ffffffffffffffffffffffffffffffffffffffff16021790555060408201518160020155606082015181600301556080820151816004015560a0820151816005015550506200185060008080549050600160008773ffffffffffffffffffffffffffffffffffffffff1673ffffffffffffffffffffffffffffffffffffffff16815260200190815260200160002062002b449092919063ffffffff16565b50620018ab60008080549050600260003373ffffffffffffffffffffffffffffffffffffffff1673ffffffffffffffffffffffffffffffffffffffff16815260200190815260200160002062002b449092919063ffffffff16565b505050505050565b6000600182620018c49190620036cd565b81548110620018fc577f4e487b7100000000000000000000000000000000000000000000000000000000600052603260045260246000fd5b906000526020600020906006020160010160009054906101000a900473ffffffffffffffffffffffffffffffffffffffff1673ffffffffffffffffffffffffffffffffffffffff163373ffffffffffffffffffffffffffffffffffffffff16146200196657600080fd5b62001971816200296f565b60046000600183620019849190620036cd565b81548110620019bc577f4e487b7100000000000000000000000000000000000000000000000000000000600052603260045260246000fd5b9060005260206000209060060201600401548154811062001a06577f4e487b7100000000000000000000000000000000000000000000000000000000600052603260045260246000fd5b9060005260206000200160009054906101000a900473ffffffffffffffffffffffffffffffffffffffff1673ffffffffffffffffffffffffffffffffffffffff1663a9059cbb600060018462001a5d9190620036cd565b8154811062001a95577f4e487b7100000000000000000000000000000000000000000000000000000000600052603260045260246000fd5b906000526020600020906006020160010160009054906101000a900473ffffffffffffffffffffffffffffffffffffffff16600060018562001ad89190620036cd565b8154811062001b10577f4e487b7100000000000000000000000000000000000000000000000000000000600052603260045260246000fd5b9060005260206000209060060201600201546040518363ffffffff1660e01b815260040162001b41929190620033f8565b602060405180830381600087803b15801562001b5c57600080fd5b505af115801562001b71573d6000803e3d6000fd5b505050506040513d601f19601f8201168201806040525081019062001b9791906200301b565b5062001ba3816200120d565b7f63616e63656c6c65640000000000000000000000000000000000000000000000600060018362001bd59190620036cd565b8154811062001c0d577f4e487b7100000000000000000000000000000000000000000000000000000000600052603260045260246000fd5b90600052602060002090600602016005018190555050565b60008060008060008060606000881162001c3e57600080fd5b600060018962001c4f9190620036cd565b9050886000828154811062001c8d577f4e487b7100000000000000000000000000000000000000000000000000000000600052603260045260246000fd5b906000526020600020906006020160000160009054906101000a900473ffffffffffffffffffffffffffffffffffffffff166000838154811062001cfa577f4e487b7100000000000000000000000000000000000000000000000000000000600052603260045260246000fd5b906000526020600020906006020160010160009054906101000a900473ffffffffffffffffffffffffffffffffffffffff166000848154811062001d67577f4e487b7100000000000000000000000000000000000000000000000000000000600052603260045260246000fd5b9060005260206000209060060201600201546000858154811062001db4577f4e487b7100000000000000000000000000000000000000000000000000000000600052603260045260246000fd5b9060005260206000209060060201600301546000868154811062001e01577f4e487b7100000000000000000000000000000000000000000000000000000000600052603260045260246000fd5b90600052602060002090600602016005015460046000888154811062001e50577f4e487b7100000000000000000000000000000000000000000000000000000000600052603260045260246000fd5b9060005260206000209060060201600401548154811062001e9a577f4e487b7100000000000000000000000000000000000000000000000000000000600052603260045260246000fd5b9060005260206000200160009054906101000a900473ffffffffffffffffffffffffffffffffffffffff1673ffffffffffffffffffffffffffffffffffffffff166306fdde036040518163ffffffff1660e01b815260040160006040518083038186803b15801562001f0b57600080fd5b505afa15801562001f20573d6000803e3d6000fd5b505050506040513d6000823e3d601f19601f8201168201806040525081019062001f4b919062003047565b975097509750975097509750975050919395979092949650565b600560009054906101000a900473ffffffffffffffffffffffffffffffffffffffff1673ffffffffffffffffffffffffffffffffffffffff163373ffffffffffffffffffffffffffffffffffffffff161462001ff8576040517f08c379a000000000000000000000000000000000000000000000000000000000815260040162001fef90620034cc565b60405180910390fd5b80600560006101000a81548173ffffffffffffffffffffffffffffffffffffffff021916908373ffffffffffffffffffffffffffffffffffffffff16021790555050565b600481815481106200204d57600080fd5b906000526020600020016000915054906101000a900473ffffffffffffffffffffffffffffffffffffffff1681565b600360009054906101000a900473ffffffffffffffffffffffffffffffffffffffff1673ffffffffffffffffffffffffffffffffffffffff1663095ea7b330836040518363ffffffff1660e01b8152600401620020db929190620033f8565b602060405180830381600087803b158015620020f657600080fd5b505af11580156200210b573d6000803e3d6000fd5b505050506040513d601f19601f820116820180604052508101906200213191906200301b565b62002173576040517f08c379a00000000000000000000000000000000000000000000000000000000081526004016200216a90620034ee565b60405180910390fd5b600360009054906101000a900473ffffffffffffffffffffffffffffffffffffffff1673ffffffffffffffffffffffffffffffffffffffff166323b872dd3384846040518463ffffffff1660e01b8152600401620021d493929190620033bb565b602060405180830381600087803b158015620021ef57600080fd5b505af115801562002204573d6000803e3d6000fd5b505050506040513d601f19601f820116820180604052508101906200222a91906200301b565b6200226c576040517f08c379a0000000000000000000000000000000000000000000000000000000008152600401620022639062003510565b60405180910390fd5b5050565b600080620022c684600160008673ffffffffffffffffffffffffffffffffffffffff1673ffffffffffffffffffffffffffffffffffffffff16815260200190815260200160002062002b5e90919063ffffffff16565b915091509250929050565b600560009054906101000a900473ffffffffffffffffffffffffffffffffffffffff1673ffffffffffffffffffffffffffffffffffffffff163373ffffffffffffffffffffffffffffffffffffffff161462002364576040517f08c379a00000000000000000000000000000000000000000000000000000000081526004016200235b90620034cc565b60405180910390fd5b600481815481106200239f577f4e487b7100000000000000000000000000000000000000000000000000000000600052603260045260246000fd5b9060005260206000200160009054906101000a900473ffffffffffffffffffffffffffffffffffffffff1673ffffffffffffffffffffffffffffffffffffffff166340c10f1984846040518363ffffffff1660e01b815260040162002406929190620033f8565b600060405180830381600087803b1580156200242157600080fd5b505af115801562002436573d6000803e3d6000fd5b50505050505050565b6000806200249584600260008673ffffffffffffffffffffffffffffffffffffffff1673ffffffffffffffffffffffffffffffffffffffff16815260200190815260200160002062002b5e90919063ffffffff16565b915091509250929050565b6000600182620024b19190620036cd565b81548110620024e9577f4e487b7100000000000000000000000000000000000000000000000000000000600052603260045260246000fd5b906000526020600020906006020160000160009054906101000a900473ffffffffffffffffffffffffffffffffffffffff1673ffffffffffffffffffffffffffffffffffffffff163373ffffffffffffffffffffffffffffffffffffffff16146200255357600080fd5b6200255e816200296f565b60046000600183620025719190620036cd565b81548110620025a9577f4e487b7100000000000000000000000000000000000000000000000000000000600052603260045260246000fd5b90600052602060002090600602016004015481548110620025f3577f4e487b7100000000000000000000000000000000000000000000000000000000600052603260045260246000fd5b9060005260206000200160009054906101000a900473ffffffffffffffffffffffffffffffffffffffff1673ffffffffffffffffffffffffffffffffffffffff1663a9059cbb60006001846200264a9190620036cd565b8154811062002682577f4e487b7100000000000000000000000000000000000000000000000000000000600052603260045260246000fd5b906000526020600020906006020160010160009054906101000a900473ffffffffffffffffffffffffffffffffffffffff166000600185620026c59190620036cd565b81548110620026fd577f4e487b7100000000000000000000000000000000000000000000000000000000600052603260045260246000fd5b9060005260206000209060060201600201546040518363ffffffff1660e01b81526004016200272e929190620033f8565b602060405180830381600087803b1580156200274957600080fd5b505af11580156200275e573d6000803e3d6000fd5b505050506040513d601f19601f820116820180604052508101906200278491906200301b565b5062002790816200120d565b7f72656a65637465640000000000000000000000000000000000000000000000006000600183620027c29190620036cd565b81548110620027fa577f4e487b7100000000000000000000000000000000000000000000000000000000600052603260045260246000fd5b90600052602060002090600602016005018190555050565b600560009054906101000a900473ffffffffffffffffffffffffffffffffffffffff1673ffffffffffffffffffffffffffffffffffffffff163373ffffffffffffffffffffffffffffffffffffffff1614620028a5576040517f08c379a00000000000000000000000000000000000000000000000000000000081526004016200289c90620034cc565b60405180910390fd5b600360009054906101000a900473ffffffffffffffffffffffffffffffffffffffff1673ffffffffffffffffffffffffffffffffffffffff166340c10f1983836040518363ffffffff1660e01b815260040162002904929190620033f8565b600060405180830381600087803b1580156200291f57600080fd5b505af115801562002934573d6000803e3d6000fd5b505050505050565b600560009054906101000a900473ffffffffffffffffffffffffffffffffffffffff1681565b6000600480549050905090565b7f70656e64696e67000000000000000000000000000000000000000000000000006000600183620029a19190620036cd565b81548110620029d9577f4e487b7100000000000000000000000000000000000000000000000000000000600052603260045260246000fd5b9060005260206000209060060201600501541462002a2e576040517f08c379a000000000000000000000000000000000000000000000000000000000815260040162002a259062003532565b60405180910390fd5b50565b60008082148062002a4b575062002a49838362002b7a565b155b1562002a5b576000905062002b3e565b62002abf83846001016000858152602001908152602001600020600080151515158152602001908152602001600020548560010160008681526020019081526020016000206000600115151515815260200190815260200160002054600162002c3a565b826001016000838152602001908152602001600020600080151515158152602001908152602001600020600090558260010160008381526020019081526020016000206000600115151515815260200190815260200160002060009055600183600001600082825462002b339190620036cd565b925050819055508190505b92915050565b600062002b55848484600162002c9f565b90509392505050565b60008062002b6f8484600162002d4a565b915091509250929050565b6000808360010160008481526020019081526020016000206000801515151581526020019081526020016000205414801562002be1575060008360010160008481526020019081526020016000206000600115151515815260200190815260200160002054145b1562002c2f57818360010160008081526020019081526020016000206000600115151515815260200190815260200160002054141562002c25576001905062002c34565b6000905062002c34565b600190505b92915050565b828460010160008481526020019081526020016000206000831515151515815260200190815260200160002081905550818460010160008581526020019081526020016000206000831515151581526020019081526020016000208190555050505050565b600062002cad858462002b7a565b15801562002cc3575062002cc2858562002b7a565b5b1562002d3d57600085600101600086815260200190815260200160002060008415151515815260200190815260200160002054905062002d068686868662002c3a565b62002d148685838662002c3a565b600186600001600082825462002d2b919062003670565b92505081905550600191505062002d42565b600090505b949350505050565b60008062002d59858562002b7a565b62002d6b576000809150915062002d9d565b600185600101600086815260200190815260200160002060008515151515815260200190815260200160002054915091505b935093915050565b61211680620039b083390190565b6040518060c00160405280600073ffffffffffffffffffffffffffffffffffffffff168152602001600073ffffffffffffffffffffffffffffffffffffffff168152602001600081526020016000815260200160008152602001600080191681525090565b600062002e2f62002e29846200361e565b620035f5565b90508281526020810184848401111562002e4857600080fd5b62002e5584828562003784565b509392505050565b600062002e7462002e6e846200361e565b620035f5565b90508281526020810184848401111562002e8d57600080fd5b62002e9a84828562003793565b509392505050565b60008135905062002eb38162003961565b92915050565b60008151905062002eca816200397b565b92915050565b600082601f83011262002ee257600080fd5b813562002ef484826020860162002e18565b91505092915050565b600082601f83011262002f0f57600080fd5b815162002f2184826020860162002e5d565b91505092915050565b60008135905062002f3b8162003995565b92915050565b60008151905062002f528162003995565b92915050565b60006020828403121562002f6b57600080fd5b600062002f7b8482850162002ea2565b91505092915050565b6000806040838503121562002f9857600080fd5b600062002fa88582860162002ea2565b925050602062002fbb8582860162002f2a565b9150509250929050565b60008060006060848603121562002fdb57600080fd5b600062002feb8682870162002ea2565b935050602062002ffe8682870162002f2a565b9250506040620030118682870162002f2a565b9150509250925092565b6000602082840312156200302e57600080fd5b60006200303e8482850162002eb9565b91505092915050565b6000602082840312156200305a57600080fd5b600082015167ffffffffffffffff8111156200307557600080fd5b620030838482850162002efd565b91505092915050565b60008060408385031215620030a057600080fd5b600083013567ffffffffffffffff811115620030bb57600080fd5b620030c98582860162002ed0565b925050602083013567ffffffffffffffff811115620030e757600080fd5b620030f58582860162002ed0565b9150509250929050565b6000602082840312156200311257600080fd5b6000620031228482850162002f2a565b91505092915050565b6000602082840312156200313e57600080fd5b60006200314e8482850162002f41565b91505092915050565b600080604083850312156200316b57600080fd5b60006200317b8582860162002f2a565b92505060206200318e8582860162002ea2565b9150509250929050565b60008060408385031215620031ac57600080fd5b6000620031bc8582860162002f2a565b9250506020620031cf8582860162002f2a565b9150509250929050565b60008060008060808587031215620031f057600080fd5b6000620032008782880162002f2a565b9450506020620032138782880162002f2a565b9350506040620032268782880162002ea2565b9250506060620032398782880162002f2a565b91505092959194509250565b620032508162003708565b82525050565b62003261816200371c565b82525050565b620032728162003728565b82525050565b62003283816200375c565b82525050565b6000620032968262003654565b620032a281856200365f565b9350620032b481856020860162003793565b620032bf816200385d565b840191505092915050565b6000620032d9601b836200365f565b9150620032e6826200386e565b602082019050919050565b6000620033006031836200365f565b91506200330d8262003897565b604082019050919050565b600062003327601a836200365f565b91506200333482620038e6565b602082019050919050565b60006200334e6018836200365f565b91506200335b826200390f565b602082019050919050565b600062003375601a836200365f565b9150620033828262003938565b602082019050919050565b620033988162003752565b82525050565b6000602082019050620033b5600083018462003245565b92915050565b6000606082019050620033d2600083018662003245565b620033e1602083018562003245565b620033f060408301846200338d565b949350505050565b60006040820190506200340f600083018562003245565b6200341e60208301846200338d565b9392505050565b60006040820190506200343c600083018562003256565b6200344b60208301846200338d565b9392505050565b600060208201905062003469600083018462003278565b92915050565b600060408201905081810360008301526200348b818562003289565b90508181036020830152620034a1818462003289565b90509392505050565b60006020820190508181036000830152620034c581620032ca565b9050919050565b60006020820190508181036000830152620034e781620032f1565b9050919050565b60006020820190508181036000830152620035098162003318565b9050919050565b600060208201905081810360008301526200352b816200333f565b9050919050565b600060208201905081810360008301526200354d8162003366565b9050919050565b60006020820190506200356b60008301846200338d565b92915050565b600060e08201905062003588600083018a6200338d565b62003597602083018962003245565b620035a6604083018862003245565b620035b560608301876200338d565b620035c460808301866200338d565b620035d360a083018562003267565b81810360c0830152620035e7818462003289565b905098975050505050505050565b60006200360162003614565b90506200360f8282620037c9565b919050565b6000604051905090565b600067ffffffffffffffff8211156200363c576200363b6200382e565b5b62003647826200385d565b9050602081019050919050565b600081519050919050565b600082825260208201905092915050565b60006200367d8262003752565b91506200368a8362003752565b9250827fffffffffffffffffffffffffffffffffffffffffffffffffffffffffffffffff03821115620036c257620036c1620037ff565b5b828201905092915050565b6000620036da8262003752565b9150620036e78362003752565b925082821015620036fd57620036fc620037ff565b5b828203905092915050565b6000620037158262003732565b9050919050565b60008115159050919050565b6000819050919050565b600073ffffffffffffffffffffffffffffffffffffffff82169050919050565b6000819050919050565b6000620037698262003770565b9050919050565b60006200377d8262003732565b9050919050565b82818337600083830152505050565b60005b83811015620037b357808201518184015260208101905062003796565b83811115620037c3576000848401525b50505050565b620037d4826200385d565b810181811067ffffffffffffffff82111715620037f657620037f56200382e565b5b80604052505050565b7f4e487b7100000000000000000000000000000000000000000000000000000000600052601160045260246000fd5b7f4e487b7100000000000000000000000000000000000000000000000000000000600052604160045260246000fd5b6000601f19601f8301169050919050565b7f4572726f722c2063616e2774207265636569766520746f6b656e730000000000600082015250565b7f4572726f722c206d73672e73656e64657220646f6573206e6f7420686176652060008201527f63656e7472616c2062616e6b20726f6c65000000000000000000000000000000602082015250565b7f6572726f722063616e277420617070726f766520616d6f756e74000000000000600082015250565b7f4572726f722c2063616e27742073656e6420746f6b656e730000000000000000600082015250565b7f4572726f722c2072657175657374206e6f742070656e64696e67000000000000600082015250565b6200396c8162003708565b81146200397857600080fd5b50565b62003986816200371c565b81146200399257600080fd5b50565b620039a08162003752565b8114620039ac57600080fd5b5056fe608060405260405162002116380380620021168339818101604052810190620000299190620001ca565b8181816003908051906020019062000043929190620000a8565b5080600490805190602001906200005c929190620000a8565b50505033600560006101000a81548173ffffffffffffffffffffffffffffffffffffffff021916908373ffffffffffffffffffffffffffffffffffffffff1602179055505050620003ad565b828054620000b690620002d2565b90600052602060002090601f016020900481019282620000da576000855562000126565b82601f10620000f557805160ff191683800117855562000126565b8280016001018555821562000126579182015b828111156200012557825182559160200191906001019062000108565b5b50905062000135919062000139565b5090565b5b80821115620001545760008160009055506001016200013a565b5090565b60006200016f620001698462000266565b6200023d565b9050828152602081018484840111156200018857600080fd5b620001958482856200029c565b509392505050565b600082601f830112620001af57600080fd5b8151620001c184826020860162000158565b91505092915050565b60008060408385031215620001de57600080fd5b600083015167ffffffffffffffff811115620001f957600080fd5b62000207858286016200019d565b925050602083015167ffffffffffffffff8111156200022557600080fd5b62000233858286016200019d565b9150509250929050565b6000620002496200025c565b905062000257828262000308565b919050565b6000604051905090565b600067ffffffffffffffff8211156200028457620002836200036d565b5b6200028f826200039c565b9050602081019050919050565b60005b83811015620002bc5780820151818401526020810190506200029f565b83811115620002cc576000848401525b50505050565b60006002820490506001821680620002eb57607f821691505b602082108114156200030257620003016200033e565b5b50919050565b62000313826200039c565b810181811067ffffffffffffffff821117156200033557620003346200036d565b5b80604052505050565b7f4e487b7100000000000000000000000000000000000000000000000000000000600052602260045260246000fd5b7f4e487b7100000000000000000000000000000000000000000000000000000000600052604160045260246000fd5b6000601f19601f8301169050919050565b611d5980620003bd6000396000f3fe608060405234801561001057600080fd5b50600436106100f55760003560e01c806340c10f1911610097578063a457c2d711610066578063a457c2d714610288578063a9059cbb146102b8578063d7fc5b15146102e8578063dd62ed3e14610318576100f5565b806340c10f191461020257806342966c681461021e57806370a082311461023a57806395d89b411461026a576100f5565b806318160ddd116100d357806318160ddd1461016657806323b872dd14610184578063313ce567146101b457806339509351146101d2576100f5565b806306fdde03146100fa5780630754617214610118578063095ea7b314610136575b600080fd5b610102610348565b60405161010f91906115c0565b60405180910390f35b6101206103da565b60405161012d919061158a565b60405180910390f35b610150600480360381019061014b919061130c565b610400565b60405161015d91906115a5565b60405180910390f35b61016e610417565b60405161017b9190611762565b60405180910390f35b61019e600480360381019061019991906112bd565b610421565b6040516101ab91906115a5565b60405180910390f35b6101bc610522565b6040516101c9919061177d565b60405180910390f35b6101ec60048036038101906101e7919061130c565b61052b565b6040516101f991906115a5565b60405180910390f35b61021c6004803603810190610217919061130c565b6105d7565b005b61023860048036038101906102339190611348565b610675565b005b610254600480360381019061024f9190611258565b610712565b6040516102619190611762565b60405180910390f35b61027261075a565b60405161027f91906115c0565b60405180910390f35b6102a2600480360381019061029d919061130c565b6107ec565b6040516102af91906115a5565b60405180910390f35b6102d260048036038101906102cd919061130c565b6108e0565b6040516102df91906115a5565b60405180910390f35b61030260048036038101906102fd9190611258565b6108fe565b60405161030f91906115a5565b60405180910390f35b610332600480360381019061032d9190611281565b610a28565b60405161033f9190611762565b60405180910390f35b606060038054610357906118c6565b80601f0160208091040260200160405190810160405280929190818152602001828054610383906118c6565b80156103d05780601f106103a5576101008083540402835291602001916103d0565b820191906000526020600020905b8154815290600101906020018083116103b357829003601f168201915b5050505050905090565b600560009054906101000a900473ffffffffffffffffffffffffffffffffffffffff1681565b600061040d328484610aaf565b6001905092915050565b6000600254905090565b600061042e848484610c7a565b6000600160008673ffffffffffffffffffffffffffffffffffffffff1673ffffffffffffffffffffffffffffffffffffffff1681526020019081526020016000206000610479610ef9565b73ffffffffffffffffffffffffffffffffffffffff1673ffffffffffffffffffffffffffffffffffffffff168152602001908152602001600020549050828110156104f9576040517f08c379a00000000000000000000000000000000000000000000000000000000081526004016104f090611682565b60405180910390fd5b61051685610505610ef9565b8584610511919061180a565b610aaf565b60019150509392505050565b60006012905090565b60006105cd610538610ef9565b848460016000610546610ef9565b73ffffffffffffffffffffffffffffffffffffffff1673ffffffffffffffffffffffffffffffffffffffff16815260200190815260200160002060008873ffffffffffffffffffffffffffffffffffffffff1673ffffffffffffffffffffffffffffffffffffffff168152602001908152602001600020546105c891906117b4565b610aaf565b6001905092915050565b600560009054906101000a900473ffffffffffffffffffffffffffffffffffffffff1673ffffffffffffffffffffffffffffffffffffffff163373ffffffffffffffffffffffffffffffffffffffff1614610667576040517f08c379a000000000000000000000000000000000000000000000000000000000815260040161065e90611662565b60405180910390fd5b6106718282610f01565b5050565b600560009054906101000a900473ffffffffffffffffffffffffffffffffffffffff1673ffffffffffffffffffffffffffffffffffffffff163373ffffffffffffffffffffffffffffffffffffffff1614610705576040517f08c379a00000000000000000000000000000000000000000000000000000000081526004016106fc90611662565b60405180910390fd5b61070f3382611055565b50565b60008060008373ffffffffffffffffffffffffffffffffffffffff1673ffffffffffffffffffffffffffffffffffffffff168152602001908152602001600020549050919050565b606060048054610769906118c6565b80601f0160208091040260200160405190810160405280929190818152602001828054610795906118c6565b80156107e25780601f106107b7576101008083540402835291602001916107e2565b820191906000526020600020905b8154815290600101906020018083116107c557829003601f168201915b5050505050905090565b600080600160006107fb610ef9565b73ffffffffffffffffffffffffffffffffffffffff1673ffffffffffffffffffffffffffffffffffffffff16815260200190815260200160002060008573ffffffffffffffffffffffffffffffffffffffff1673ffffffffffffffffffffffffffffffffffffffff168152602001908152602001600020549050828110156108b8576040517f08c379a00000000000000000000000000000000000000000000000000000000081526004016108af90611722565b60405180910390fd5b6108d56108c3610ef9565b8585846108d0919061180a565b610aaf565b600191505092915050565b60006108f46108ed610ef9565b8484610c7a565b6001905092915050565b6000600560009054906101000a900473ffffffffffffffffffffffffffffffffffffffff1673ffffffffffffffffffffffffffffffffffffffff163373ffffffffffffffffffffffffffffffffffffffff1614610990576040517f08c379a000000000000000000000000000000000000000000000000000000000815260040161098790611702565b60405180910390fd5b81600560006101000a81548173ffffffffffffffffffffffffffffffffffffffff021916908373ffffffffffffffffffffffffffffffffffffffff1602179055503373ffffffffffffffffffffffffffffffffffffffff167f3b0007eb941cf645526cbb3a4fdaecda9d28ce4843167d9263b536a1f1edc0f683604051610a17919061158a565b60405180910390a260019050919050565b6000600160008473ffffffffffffffffffffffffffffffffffffffff1673ffffffffffffffffffffffffffffffffffffffff16815260200190815260200160002060008373ffffffffffffffffffffffffffffffffffffffff1673ffffffffffffffffffffffffffffffffffffffff16815260200190815260200160002054905092915050565b600073ffffffffffffffffffffffffffffffffffffffff168373ffffffffffffffffffffffffffffffffffffffff161415610b1f576040517f08c379a0000000000000000000000000000000000000000000000000000000008152600401610b16906116e2565b60405180910390fd5b600073ffffffffffffffffffffffffffffffffffffffff168273ffffffffffffffffffffffffffffffffffffffff161415610b8f576040517f08c379a0000000000000000000000000000000000000000000000000000000008152600401610b8690611622565b60405180910390fd5b80600160008573ffffffffffffffffffffffffffffffffffffffff1673ffffffffffffffffffffffffffffffffffffffff16815260200190815260200160002060008473ffffffffffffffffffffffffffffffffffffffff1673ffffffffffffffffffffffffffffffffffffffff168152602001908152602001600020819055508173ffffffffffffffffffffffffffffffffffffffff168373ffffffffffffffffffffffffffffffffffffffff167f8c5be1e5ebec7d5bd14f71427d1e84f3dd0314c0f7b2291e5b200ac8c7c3b92583604051610c6d9190611762565b60405180910390a3505050565b600073ffffffffffffffffffffffffffffffffffffffff168373ffffffffffffffffffffffffffffffffffffffff161415610cea576040517f08c379a0000000000000000000000000000000000000000000000000000000008152600401610ce1906116c2565b60405180910390fd5b600073ffffffffffffffffffffffffffffffffffffffff168273ffffffffffffffffffffffffffffffffffffffff161415610d5a576040517f08c379a0000000000000000000000000000000000000000000000000000000008152600401610d51906115e2565b60405180910390fd5b610d65838383611229565b60008060008573ffffffffffffffffffffffffffffffffffffffff1673ffffffffffffffffffffffffffffffffffffffff16815260200190815260200160002054905081811015610deb576040517f08c379a0000000000000000000000000000000000000000000000000000000008152600401610de290611642565b60405180910390fd5b8181610df7919061180a565b6000808673ffffffffffffffffffffffffffffffffffffffff1673ffffffffffffffffffffffffffffffffffffffff16815260200190815260200160002081905550816000808573ffffffffffffffffffffffffffffffffffffffff1673ffffffffffffffffffffffffffffffffffffffff1681526020019081526020016000206000828254610e8791906117b4565b925050819055508273ffffffffffffffffffffffffffffffffffffffff168473ffffffffffffffffffffffffffffffffffffffff167fddf252ad1be2c89b69c2b068fc378daa952ba7f163c4a11628f55a4df523b3ef84604051610eeb9190611762565b60405180910390a350505050565b600033905090565b600073ffffffffffffffffffffffffffffffffffffffff168273ffffffffffffffffffffffffffffffffffffffff161415610f71576040517f08c379a0000000000000000000000000000000000000000000000000000000008152600401610f6890611742565b60405180910390fd5b610f7d60008383611229565b8060026000828254610f8f91906117b4565b92505081905550806000808473ffffffffffffffffffffffffffffffffffffffff1673ffffffffffffffffffffffffffffffffffffffff1681526020019081526020016000206000828254610fe491906117b4565b925050819055508173ffffffffffffffffffffffffffffffffffffffff16600073ffffffffffffffffffffffffffffffffffffffff167fddf252ad1be2c89b69c2b068fc378daa952ba7f163c4a11628f55a4df523b3ef836040516110499190611762565b60405180910390a35050565b600073ffffffffffffffffffffffffffffffffffffffff168273ffffffffffffffffffffffffffffffffffffffff1614156110c5576040517f08c379a00000000000000000000000000000000000000000000000000000000081526004016110bc906116a2565b60405180910390fd5b6110d182600083611229565b60008060008473ffffffffffffffffffffffffffffffffffffffff1673ffffffffffffffffffffffffffffffffffffffff16815260200190815260200160002054905081811015611157576040517f08c379a000000000000000000000000000000000000000000000000000000000815260040161114e90611602565b60405180910390fd5b8181611163919061180a565b6000808573ffffffffffffffffffffffffffffffffffffffff1673ffffffffffffffffffffffffffffffffffffffff1681526020019081526020016000208190555081600260008282546111b7919061180a565b92505081905550600073ffffffffffffffffffffffffffffffffffffffff168373ffffffffffffffffffffffffffffffffffffffff167fddf252ad1be2c89b69c2b068fc378daa952ba7f163c4a11628f55a4df523b3ef8460405161121c9190611762565b60405180910390a3505050565b505050565b60008135905061123d81611cf5565b92915050565b60008135905061125281611d0c565b92915050565b60006020828403121561126a57600080fd5b60006112788482850161122e565b91505092915050565b6000806040838503121561129457600080fd5b60006112a28582860161122e565b92505060206112b38582860161122e565b9150509250929050565b6000806000606084860312156112d257600080fd5b60006112e08682870161122e565b93505060206112f18682870161122e565b925050604061130286828701611243565b9150509250925092565b6000806040838503121561131f57600080fd5b600061132d8582860161122e565b925050602061133e85828601611243565b9150509250929050565b60006020828403121561135a57600080fd5b600061136884828501611243565b91505092915050565b61137a8161183e565b82525050565b61138981611850565b82525050565b600061139a82611798565b6113a481856117a3565b93506113b4818560208601611893565b6113bd81611956565b840191505092915050565b60006113d56023836117a3565b91506113e082611967565b604082019050919050565b60006113f86022836117a3565b9150611403826119b6565b604082019050919050565b600061141b6022836117a3565b915061142682611a05565b604082019050919050565b600061143e6026836117a3565b915061144982611a54565b604082019050919050565b6000611461602b836117a3565b915061146c82611aa3565b604082019050919050565b60006114846028836117a3565b915061148f82611af2565b604082019050919050565b60006114a76021836117a3565b91506114b282611b41565b604082019050919050565b60006114ca6025836117a3565b91506114d582611b90565b604082019050919050565b60006114ed6024836117a3565b91506114f882611bdf565b604082019050919050565b6000611510602d836117a3565b915061151b82611c2e565b604082019050919050565b60006115336025836117a3565b915061153e82611c7d565b604082019050919050565b6000611556601f836117a3565b915061156182611ccc565b602082019050919050565b6115758161187c565b82525050565b61158481611886565b82525050565b600060208201905061159f6000830184611371565b92915050565b60006020820190506115ba6000830184611380565b92915050565b600060208201905081810360008301526115da818461138f565b905092915050565b600060208201905081810360008301526115fb816113c8565b9050919050565b6000602082019050818103600083015261161b816113eb565b9050919050565b6000602082019050818103600083015261163b8161140e565b9050919050565b6000602082019050818103600083015261165b81611431565b9050919050565b6000602082019050818103600083015261167b81611454565b9050919050565b6000602082019050818103600083015261169b81611477565b9050919050565b600060208201905081810360008301526116bb8161149a565b9050919050565b600060208201905081810360008301526116db816114bd565b9050919050565b600060208201905081810360008301526116fb816114e0565b9050919050565b6000602082019050818103600083015261171b81611503565b9050919050565b6000602082019050818103600083015261173b81611526565b9050919050565b6000602082019050818103600083015261175b81611549565b9050919050565b6000602082019050611777600083018461156c565b92915050565b6000602082019050611792600083018461157b565b92915050565b600081519050919050565b600082825260208201905092915050565b60006117bf8261187c565b91506117ca8361187c565b9250827fffffffffffffffffffffffffffffffffffffffffffffffffffffffffffffffff038211156117ff576117fe6118f8565b5b828201905092915050565b60006118158261187c565b91506118208361187c565b925082821015611833576118326118f8565b5b828203905092915050565b60006118498261185c565b9050919050565b60008115159050919050565b600073ffffffffffffffffffffffffffffffffffffffff82169050919050565b6000819050919050565b600060ff82169050919050565b60005b838110156118b1578082015181840152602081019050611896565b838111156118c0576000848401525b50505050565b600060028204905060018216806118de57607f821691505b602082108114156118f2576118f1611927565b5b50919050565b7f4e487b7100000000000000000000000000000000000000000000000000000000600052601160045260246000fd5b7f4e487b7100000000000000000000000000000000000000000000000000000000600052602260045260246000fd5b6000601f19601f8301169050919050565b7f45524332303a207472616e7366657220746f20746865207a65726f206164647260008201527f6573730000000000000000000000000000000000000000000000000000000000602082015250565b7f45524332303a206275726e20616d6f756e7420657863656564732062616c616e60008201527f6365000000000000000000000000000000000000000000000000000000000000602082015250565b7f45524332303a20617070726f766520746f20746865207a65726f20616464726560008201527f7373000000000000000000000000000000000000000000000000000000000000602082015250565b7f45524332303a207472616e7366657220616d6f756e742065786365656473206260008201527f616c616e63650000000000000000000000000000000000000000000000000000602082015250565b7f4572726f722c206d73672e73656e64657220646f6573206e6f7420686176652060008201527f6d696e74657220726f6c65000000000000000000000000000000000000000000602082015250565b7f45524332303a207472616e7366657220616d6f756e742065786365656473206160008201527f6c6c6f77616e6365000000000000000000000000000000000000000000000000602082015250565b7f45524332303a206275726e2066726f6d20746865207a65726f2061646472657360008201527f7300000000000000000000000000000000000000000000000000000000000000602082015250565b7f45524332303a207472616e736665722066726f6d20746865207a65726f20616460008201527f6472657373000000000000000000000000000000000000000000000000000000602082015250565b7f45524332303a20617070726f76652066726f6d20746865207a65726f2061646460008201527f7265737300000000000000000000000000000000000000000000000000000000602082015250565b7f4572726f722c206f6e6c79206f776e65722063616e206368616e67652070617360008201527f73206d696e74657220726f6c6500000000000000000000000000000000000000602082015250565b7f45524332303a2064656372656173656420616c6c6f77616e63652062656c6f7760008201527f207a65726f000000000000000000000000000000000000000000000000000000602082015250565b7f45524332303a206d696e7420746f20746865207a65726f206164647265737300600082015250565b611cfe8161183e565b8114611d0957600080fd5b50565b611d158161187c565b8114611d2057600080fd5b5056fea26469706673582212200bcc2bd744bb01dd155ea93504cfa49efc52dad5b294806d4743c86a5d2e9c5c64736f6c63430008040033a26469706673582212202d1d883e9cbe07705ab829acebd49196bb79584642f8a25e2e6ff29080079a6e64736f6c63430008040033",
  "immutableReferences": {},
  "source": "// SPDX-License-Identifier: MIT\r\n\r\n//need to seprate the contracts due to how there is too big to be deployed\r\npragma solidity >=0.6.0 <0.9.0;\r\n\r\n\r\nimport \"./Token.sol\";\r\nimport \"./Security.sol\";\r\nimport \"solidity-linked-list/contracts/StructuredLinkedList.sol\";\r\n\r\n\r\n\r\n\r\ncontract dapps {\r\n\r\n    struct Request{\r\n        address Buyer;\r\n        address Seller;\r\n        uint256 amount;\r\n        uint256 price;\r\n        uint256 securityid;\r\n        bytes32 status;\r\n    }\r\n\r\n    using StructuredLinkedList for StructuredLinkedList.List;\r\n\r\n    Request[] requests;\r\n\r\n    mapping(address=>StructuredLinkedList.List) public confirmations;\r\n    mapping(address=>StructuredLinkedList.List) public pendings;\r\n\r\n\r\n    Token private token;\r\n    Security [] public security;\r\n    address public CB;\r\n\r\n    constructor(Token _token){\r\n        token = _token;\r\n        CB = msg.sender;\r\n    }\r\n\r\n    function AddSecurity(string memory _name, string memory _symbol) public{\r\n        require(msg.sender==CB);\r\n        security.push(new Security(_name, _symbol));\r\n    }\r\n\r\n    function SecurityLength() view public returns(uint256){\r\n        return security.length;\r\n    }\r\n\r\n    function RemoveConfirmPending (uint256 node) public{\r\n        confirmations[requests[node-1].Buyer].remove(node);\r\n        pendings[requests[node-1].Seller].remove(node);\r\n    }\r\n\r\n    function ispending (uint256 node) view private{\r\n        require((requests[node-1].status) == bytes32(\"pending\"), \"Error, request not pending\");\r\n    }\r\n\r\n    function RequestSellSecurity(uint256 amount, uint256 price, address Buyer, uint256 id) public {\r\n        transferSecurity(address(this), amount, id);\r\n        Request memory temp;\r\n        temp.Buyer = Buyer;\r\n        temp.Seller = msg.sender;\r\n        temp.amount = amount;\r\n        temp.price = price;\r\n        temp.securityid = id;\r\n        temp.status = \"pending\";\r\n        requests.push(temp);\r\n        confirmations[Buyer].insertAfter(0,requests.length);\r\n        pendings[msg.sender].insertAfter(0,requests.length);\r\n\r\n    }\r\n\r\n    function GetRequest(uint node) public view returns(uint, address, address, uint256, uint256, bytes32, string memory){\r\n        require(node>0);\r\n        uint temp = node-1;\r\n        return (node, requests[temp].Buyer,requests[temp].Seller,requests[temp].amount,requests[temp].price,requests[temp].status, security[requests[temp].securityid].name());\r\n    }\r\n\r\n    function CancelRequest(uint256 node) public{\r\n        require(msg.sender == requests[node-1].Seller);\r\n        ispending(node);\r\n        //return the token\r\n        security[requests[node-1].securityid].transfer(requests[node-1].Seller,requests[node-1].amount);\r\n\r\n        RemoveConfirmPending (node);\r\n\r\n        requests[node-1].status = \"cancelled\";\r\n    }\r\n\r\n    function RejectRequest(uint256 node) public{\r\n        require(msg.sender == requests[node-1].Buyer);\r\n        ispending(node);\r\n        //return the security\r\n        security[requests[node-1].securityid].transfer(requests[node-1].Seller,requests[node-1].amount);\r\n\r\n        RemoveConfirmPending (node);\r\n\r\n        requests[node-1].status = \"rejected\";\r\n    }\r\n\r\n    function ConfirmRequest(uint256 node) public{\r\n        require(msg.sender == requests[node-1].Buyer);\r\n        ispending(node);\r\n\r\n        //transfer token\r\n        if(token.balanceOf(msg.sender) >= requests[node-1].price){\r\n            transfer(requests[node-1].Seller, requests[node-1].price);\r\n            //transfer security\r\n            security[requests[node-1].securityid].transfer(requests[node-1].Buyer,requests[node-1].amount);\r\n            requests[node-1].status = \"success\";\r\n            RemoveConfirmPending (node);\r\n        }\r\n        else{\r\n            RejectRequest(node);\r\n        }\r\n        \r\n        //remove pendings and confrimations\r\n        \r\n\r\n        \r\n    }\r\n\r\n//change list to next\r\n\r\n    function nextConfirmations(uint256 node, address from)public view returns( bool, uint256 ){\r\n        return confirmations[from].getNextNode(node);\r\n    }\r\n\r\n    function nextPendings(uint256 node, address from)public view returns(bool, uint256){\r\n        return pendings[from].getNextNode(node);\r\n    }\r\n\r\n    function issuance(address to, uint256 amount) public{\r\n        require(msg.sender==CB, 'Error, msg.sender does not have central bank role');\r\n        token.mint(to, amount);\r\n    }\r\n\r\n    function issuanceSecurity(address to, uint256 amount, uint256 id) public{\r\n        require(msg.sender==CB, 'Error, msg.sender does not have central bank role');\r\n        security[id].mint(to, amount);\r\n    }\r\n\r\n    function redemption (uint256 amount) public {\r\n        require(token.approve(address(this), amount),\"error can't approve amount\");\r\n        require(token.transferFrom(msg.sender, address(this), amount), \"Error, can't receive tokens\");\r\n        token.burn(amount);\r\n    }\r\n\r\n    function redemptionSecurity (uint256 amount, uint256 id) public {\r\n        require(security[id].approve(address(this), amount),\"error can't approve amount\");\r\n        require(security[id].transferFrom(msg.sender, address(this), amount), \"Error, can't receive tokens\");\r\n        security[id].burn(amount);\r\n    }\r\n\r\n    function transfer(address to, uint256 amount) public{\r\n        require(token.approve(address(this), amount),\"error can't approve amount\");\r\n        require(token.transferFrom(msg.sender, to, amount), \"Error, can't send tokens\");\r\n    }\r\n\r\n    function transferSecurity(address to, uint256 amount, uint256 id) public{\r\n        require(security[id].approve(address(this), amount),\"error can't approve amount\");\r\n        require(security[id].transferFrom(msg.sender, to, amount), \"Error, can't send tokens\");\r\n    }\r\n\r\n    function passCentralBankRole(address newCB) public{\r\n        require(msg.sender==CB, 'Error, msg.sender does not have central bank role');\r\n        CB = newCB;\r\n    }\r\n\r\n    fallback() external payable {}\r\n\r\n    receive() external payable {}\r\n\r\n\r\n}",
  "sourcePath": "C:/Users/MARCHEL/Documents/uni stuff/internship/prototypr 2/cbdc/src/contracts/dapps.sol",
  "compiler": {
    "name": "solc",
    "version": "0.8.4+commit.c7e474f2.Emscripten.clang"
  },
  "schemaVersion": "3.3.4",
  "updatedAt": "2021-05-24T02:04:14.929Z",
  "networkType": "ethereum",
  "devdoc": {
    "kind": "dev",
    "methods": {},
    "version": 1
  },
  "userdoc": {
    "kind": "user",
    "methods": {},
    "version": 1
  }
}