{
  "contractName": "Security",
  "abi": [
    {
      "inputs": [
        {
          "internalType": "string",
          "name": "_name",
          "type": "string"
        },
        {
          "internalType": "string",
          "name": "_symbol",
          "type": "string"
        }
      ],
      "stateMutability": "payable",
      "type": "constructor"
    },
    {
      "anonymous": false,
      "inputs": [
        {
          "indexed": true,
          "internalType": "address",
          "name": "owner",
          "type": "address"
        },
        {
          "indexed": true,
          "internalType": "address",
          "name": "spender",
          "type": "address"
        },
        {
          "indexed": false,
          "internalType": "uint256",
          "name": "value",
          "type": "uint256"
        }
      ],
      "name": "Approval",
      "type": "event"
    },
    {
      "anonymous": false,
      "inputs": [
        {
          "indexed": true,
          "internalType": "address",
          "name": "from",
          "type": "address"
        },
        {
          "indexed": false,
          "internalType": "address",
          "name": "to",
          "type": "address"
        }
      ],
      "name": "MinterChanged",
      "type": "event"
    },
    {
      "anonymous": false,
      "inputs": [
        {
          "indexed": true,
          "internalType": "address",
          "name": "from",
          "type": "address"
        },
        {
          "indexed": true,
          "internalType": "address",
          "name": "to",
          "type": "address"
        },
        {
          "indexed": false,
          "internalType": "uint256",
          "name": "value",
          "type": "uint256"
        }
      ],
      "name": "Transfer",
      "type": "event"
    },
    {
      "inputs": [
        {
          "internalType": "address",
          "name": "owner",
          "type": "address"
        },
        {
          "internalType": "address",
          "name": "spender",
          "type": "address"
        }
      ],
      "name": "allowance",
      "outputs": [
        {
          "internalType": "uint256",
          "name": "",
          "type": "uint256"
        }
      ],
      "stateMutability": "view",
      "type": "function"
    },
    {
      "inputs": [
        {
          "internalType": "address",
          "name": "account",
          "type": "address"
        }
      ],
      "name": "balanceOf",
      "outputs": [
        {
          "internalType": "uint256",
          "name": "",
          "type": "uint256"
        }
      ],
      "stateMutability": "view",
      "type": "function"
    },
    {
      "inputs": [],
      "name": "decimals",
      "outputs": [
        {
          "internalType": "uint8",
          "name": "",
          "type": "uint8"
        }
      ],
      "stateMutability": "view",
      "type": "function"
    },
    {
      "inputs": [
        {
          "internalType": "address",
          "name": "spender",
          "type": "address"
        },
        {
          "internalType": "uint256",
          "name": "subtractedValue",
          "type": "uint256"
        }
      ],
      "name": "decreaseAllowance",
      "outputs": [
        {
          "internalType": "bool",
          "name": "",
          "type": "bool"
        }
      ],
      "stateMutability": "nonpayable",
      "type": "function"
    },
    {
      "inputs": [
        {
          "internalType": "address",
          "name": "spender",
          "type": "address"
        },
        {
          "internalType": "uint256",
          "name": "addedValue",
          "type": "uint256"
        }
      ],
      "name": "increaseAllowance",
      "outputs": [
        {
          "internalType": "bool",
          "name": "",
          "type": "bool"
        }
      ],
      "stateMutability": "nonpayable",
      "type": "function"
    },
    {
      "inputs": [],
      "name": "minter",
      "outputs": [
        {
          "internalType": "address",
          "name": "",
          "type": "address"
        }
      ],
      "stateMutability": "view",
      "type": "function"
    },
    {
      "inputs": [],
      "name": "name",
      "outputs": [
        {
          "internalType": "string",
          "name": "",
          "type": "string"
        }
      ],
      "stateMutability": "view",
      "type": "function"
    },
    {
      "inputs": [],
      "name": "symbol",
      "outputs": [
        {
          "internalType": "string",
          "name": "",
          "type": "string"
        }
      ],
      "stateMutability": "view",
      "type": "function"
    },
    {
      "inputs": [],
      "name": "totalSupply",
      "outputs": [
        {
          "internalType": "uint256",
          "name": "",
          "type": "uint256"
        }
      ],
      "stateMutability": "view",
      "type": "function"
    },
    {
      "inputs": [
        {
          "internalType": "address",
          "name": "recipient",
          "type": "address"
        },
        {
          "internalType": "uint256",
          "name": "amount",
          "type": "uint256"
        }
      ],
      "name": "transfer",
      "outputs": [
        {
          "internalType": "bool",
          "name": "",
          "type": "bool"
        }
      ],
      "stateMutability": "nonpayable",
      "type": "function"
    },
    {
      "inputs": [
        {
          "internalType": "address",
          "name": "sender",
          "type": "address"
        },
        {
          "internalType": "address",
          "name": "recipient",
          "type": "address"
        },
        {
          "internalType": "uint256",
          "name": "amount",
          "type": "uint256"
        }
      ],
      "name": "transferFrom",
      "outputs": [
        {
          "internalType": "bool",
          "name": "",
          "type": "bool"
        }
      ],
      "stateMutability": "nonpayable",
      "type": "function"
    },
    {
      "inputs": [
        {
          "internalType": "address",
          "name": "dBank",
          "type": "address"
        }
      ],
      "name": "passMinterRole",
      "outputs": [
        {
          "internalType": "bool",
          "name": "",
          "type": "bool"
        }
      ],
      "stateMutability": "nonpayable",
      "type": "function"
    },
    {
      "inputs": [
        {
          "internalType": "address",
          "name": "account",
          "type": "address"
        },
        {
          "internalType": "uint256",
          "name": "amount",
          "type": "uint256"
        }
      ],
      "name": "mint",
      "outputs": [],
      "stateMutability": "nonpayable",
      "type": "function"
    },
    {
      "inputs": [
        {
          "internalType": "uint256",
          "name": "amount",
          "type": "uint256"
        }
      ],
      "name": "burn",
      "outputs": [],
      "stateMutability": "nonpayable",
      "type": "function"
    },
    {
      "inputs": [
        {
          "internalType": "address",
          "name": "spender",
          "type": "address"
        },
        {
          "internalType": "uint256",
          "name": "amount",
          "type": "uint256"
        }
      ],
      "name": "approve",
      "outputs": [
        {
          "internalType": "bool",
          "name": "",
          "type": "bool"
        }
      ],
      "stateMutability": "nonpayable",
      "type": "function"
    }
  ],
  "bytecode": "0x608060405260405162002116380380620021168339818101604052810190620000299190620001ca565b8181816003908051906020019062000043929190620000a8565b5080600490805190602001906200005c929190620000a8565b50505033600560006101000a81548173ffffffffffffffffffffffffffffffffffffffff021916908373ffffffffffffffffffffffffffffffffffffffff1602179055505050620003ad565b828054620000b690620002d2565b90600052602060002090601f016020900481019282620000da576000855562000126565b82601f10620000f557805160ff191683800117855562000126565b8280016001018555821562000126579182015b828111156200012557825182559160200191906001019062000108565b5b50905062000135919062000139565b5090565b5b80821115620001545760008160009055506001016200013a565b5090565b60006200016f620001698462000266565b6200023d565b9050828152602081018484840111156200018857600080fd5b620001958482856200029c565b509392505050565b600082601f830112620001af57600080fd5b8151620001c184826020860162000158565b91505092915050565b60008060408385031215620001de57600080fd5b600083015167ffffffffffffffff811115620001f957600080fd5b62000207858286016200019d565b925050602083015167ffffffffffffffff8111156200022557600080fd5b62000233858286016200019d565b9150509250929050565b6000620002496200025c565b905062000257828262000308565b919050565b6000604051905090565b600067ffffffffffffffff8211156200028457620002836200036d565b5b6200028f826200039c565b9050602081019050919050565b60005b83811015620002bc5780820151818401526020810190506200029f565b83811115620002cc576000848401525b50505050565b60006002820490506001821680620002eb57607f821691505b602082108114156200030257620003016200033e565b5b50919050565b62000313826200039c565b810181811067ffffffffffffffff821117156200033557620003346200036d565b5b80604052505050565b7f4e487b7100000000000000000000000000000000000000000000000000000000600052602260045260246000fd5b7f4e487b7100000000000000000000000000000000000000000000000000000000600052604160045260246000fd5b6000601f19601f8301169050919050565b611d5980620003bd6000396000f3fe608060405234801561001057600080fd5b50600436106100f55760003560e01c806340c10f1911610097578063a457c2d711610066578063a457c2d714610288578063a9059cbb146102b8578063d7fc5b15146102e8578063dd62ed3e14610318576100f5565b806340c10f191461020257806342966c681461021e57806370a082311461023a57806395d89b411461026a576100f5565b806318160ddd116100d357806318160ddd1461016657806323b872dd14610184578063313ce567146101b457806339509351146101d2576100f5565b806306fdde03146100fa5780630754617214610118578063095ea7b314610136575b600080fd5b610102610348565b60405161010f91906115c0565b60405180910390f35b6101206103da565b60405161012d919061158a565b60405180910390f35b610150600480360381019061014b919061130c565b610400565b60405161015d91906115a5565b60405180910390f35b61016e610417565b60405161017b9190611762565b60405180910390f35b61019e600480360381019061019991906112bd565b610421565b6040516101ab91906115a5565b60405180910390f35b6101bc610522565b6040516101c9919061177d565b60405180910390f35b6101ec60048036038101906101e7919061130c565b61052b565b6040516101f991906115a5565b60405180910390f35b61021c6004803603810190610217919061130c565b6105d7565b005b61023860048036038101906102339190611348565b610675565b005b610254600480360381019061024f9190611258565b610712565b6040516102619190611762565b60405180910390f35b61027261075a565b60405161027f91906115c0565b60405180910390f35b6102a2600480360381019061029d919061130c565b6107ec565b6040516102af91906115a5565b60405180910390f35b6102d260048036038101906102cd919061130c565b6108e0565b6040516102df91906115a5565b60405180910390f35b61030260048036038101906102fd9190611258565b6108fe565b60405161030f91906115a5565b60405180910390f35b610332600480360381019061032d9190611281565b610a28565b60405161033f9190611762565b60405180910390f35b606060038054610357906118c6565b80601f0160208091040260200160405190810160405280929190818152602001828054610383906118c6565b80156103d05780601f106103a5576101008083540402835291602001916103d0565b820191906000526020600020905b8154815290600101906020018083116103b357829003601f168201915b5050505050905090565b600560009054906101000a900473ffffffffffffffffffffffffffffffffffffffff1681565b600061040d328484610aaf565b6001905092915050565b6000600254905090565b600061042e848484610c7a565b6000600160008673ffffffffffffffffffffffffffffffffffffffff1673ffffffffffffffffffffffffffffffffffffffff1681526020019081526020016000206000610479610ef9565b73ffffffffffffffffffffffffffffffffffffffff1673ffffffffffffffffffffffffffffffffffffffff168152602001908152602001600020549050828110156104f9576040517f08c379a00000000000000000000000000000000000000000000000000000000081526004016104f090611682565b60405180910390fd5b61051685610505610ef9565b8584610511919061180a565b610aaf565b60019150509392505050565b60006012905090565b60006105cd610538610ef9565b848460016000610546610ef9565b73ffffffffffffffffffffffffffffffffffffffff1673ffffffffffffffffffffffffffffffffffffffff16815260200190815260200160002060008873ffffffffffffffffffffffffffffffffffffffff1673ffffffffffffffffffffffffffffffffffffffff168152602001908152602001600020546105c891906117b4565b610aaf565b6001905092915050565b600560009054906101000a900473ffffffffffffffffffffffffffffffffffffffff1673ffffffffffffffffffffffffffffffffffffffff163373ffffffffffffffffffffffffffffffffffffffff1614610667576040517f08c379a000000000000000000000000000000000000000000000000000000000815260040161065e90611662565b60405180910390fd5b6106718282610f01565b5050565b600560009054906101000a900473ffffffffffffffffffffffffffffffffffffffff1673ffffffffffffffffffffffffffffffffffffffff163373ffffffffffffffffffffffffffffffffffffffff1614610705576040517f08c379a00000000000000000000000000000000000000000000000000000000081526004016106fc90611662565b60405180910390fd5b61070f3382611055565b50565b60008060008373ffffffffffffffffffffffffffffffffffffffff1673ffffffffffffffffffffffffffffffffffffffff168152602001908152602001600020549050919050565b606060048054610769906118c6565b80601f0160208091040260200160405190810160405280929190818152602001828054610795906118c6565b80156107e25780601f106107b7576101008083540402835291602001916107e2565b820191906000526020600020905b8154815290600101906020018083116107c557829003601f168201915b5050505050905090565b600080600160006107fb610ef9565b73ffffffffffffffffffffffffffffffffffffffff1673ffffffffffffffffffffffffffffffffffffffff16815260200190815260200160002060008573ffffffffffffffffffffffffffffffffffffffff1673ffffffffffffffffffffffffffffffffffffffff168152602001908152602001600020549050828110156108b8576040517f08c379a00000000000000000000000000000000000000000000000000000000081526004016108af90611722565b60405180910390fd5b6108d56108c3610ef9565b8585846108d0919061180a565b610aaf565b600191505092915050565b60006108f46108ed610ef9565b8484610c7a565b6001905092915050565b6000600560009054906101000a900473ffffffffffffffffffffffffffffffffffffffff1673ffffffffffffffffffffffffffffffffffffffff163373ffffffffffffffffffffffffffffffffffffffff1614610990576040517f08c379a000000000000000000000000000000000000000000000000000000000815260040161098790611702565b60405180910390fd5b81600560006101000a81548173ffffffffffffffffffffffffffffffffffffffff021916908373ffffffffffffffffffffffffffffffffffffffff1602179055503373ffffffffffffffffffffffffffffffffffffffff167f3b0007eb941cf645526cbb3a4fdaecda9d28ce4843167d9263b536a1f1edc0f683604051610a17919061158a565b60405180910390a260019050919050565b6000600160008473ffffffffffffffffffffffffffffffffffffffff1673ffffffffffffffffffffffffffffffffffffffff16815260200190815260200160002060008373ffffffffffffffffffffffffffffffffffffffff1673ffffffffffffffffffffffffffffffffffffffff16815260200190815260200160002054905092915050565b600073ffffffffffffffffffffffffffffffffffffffff168373ffffffffffffffffffffffffffffffffffffffff161415610b1f576040517f08c379a0000000000000000000000000000000000000000000000000000000008152600401610b16906116e2565b60405180910390fd5b600073ffffffffffffffffffffffffffffffffffffffff168273ffffffffffffffffffffffffffffffffffffffff161415610b8f576040517f08c379a0000000000000000000000000000000000000000000000000000000008152600401610b8690611622565b60405180910390fd5b80600160008573ffffffffffffffffffffffffffffffffffffffff1673ffffffffffffffffffffffffffffffffffffffff16815260200190815260200160002060008473ffffffffffffffffffffffffffffffffffffffff1673ffffffffffffffffffffffffffffffffffffffff168152602001908152602001600020819055508173ffffffffffffffffffffffffffffffffffffffff168373ffffffffffffffffffffffffffffffffffffffff167f8c5be1e5ebec7d5bd14f71427d1e84f3dd0314c0f7b2291e5b200ac8c7c3b92583604051610c6d9190611762565b60405180910390a3505050565b600073ffffffffffffffffffffffffffffffffffffffff168373ffffffffffffffffffffffffffffffffffffffff161415610cea576040517f08c379a0000000000000000000000000000000000000000000000000000000008152600401610ce1906116c2565b60405180910390fd5b600073ffffffffffffffffffffffffffffffffffffffff168273ffffffffffffffffffffffffffffffffffffffff161415610d5a576040517f08c379a0000000000000000000000000000000000000000000000000000000008152600401610d51906115e2565b60405180910390fd5b610d65838383611229565b60008060008573ffffffffffffffffffffffffffffffffffffffff1673ffffffffffffffffffffffffffffffffffffffff16815260200190815260200160002054905081811015610deb576040517f08c379a0000000000000000000000000000000000000000000000000000000008152600401610de290611642565b60405180910390fd5b8181610df7919061180a565b6000808673ffffffffffffffffffffffffffffffffffffffff1673ffffffffffffffffffffffffffffffffffffffff16815260200190815260200160002081905550816000808573ffffffffffffffffffffffffffffffffffffffff1673ffffffffffffffffffffffffffffffffffffffff1681526020019081526020016000206000828254610e8791906117b4565b925050819055508273ffffffffffffffffffffffffffffffffffffffff168473ffffffffffffffffffffffffffffffffffffffff167fddf252ad1be2c89b69c2b068fc378daa952ba7f163c4a11628f55a4df523b3ef84604051610eeb9190611762565b60405180910390a350505050565b600033905090565b600073ffffffffffffffffffffffffffffffffffffffff168273ffffffffffffffffffffffffffffffffffffffff161415610f71576040517f08c379a0000000000000000000000000000000000000000000000000000000008152600401610f6890611742565b60405180910390fd5b610f7d60008383611229565b8060026000828254610f8f91906117b4565b92505081905550806000808473ffffffffffffffffffffffffffffffffffffffff1673ffffffffffffffffffffffffffffffffffffffff1681526020019081526020016000206000828254610fe491906117b4565b925050819055508173ffffffffffffffffffffffffffffffffffffffff16600073ffffffffffffffffffffffffffffffffffffffff167fddf252ad1be2c89b69c2b068fc378daa952ba7f163c4a11628f55a4df523b3ef836040516110499190611762565b60405180910390a35050565b600073ffffffffffffffffffffffffffffffffffffffff168273ffffffffffffffffffffffffffffffffffffffff1614156110c5576040517f08c379a00000000000000000000000000000000000000000000000000000000081526004016110bc906116a2565b60405180910390fd5b6110d182600083611229565b60008060008473ffffffffffffffffffffffffffffffffffffffff1673ffffffffffffffffffffffffffffffffffffffff16815260200190815260200160002054905081811015611157576040517f08c379a000000000000000000000000000000000000000000000000000000000815260040161114e90611602565b60405180910390fd5b8181611163919061180a565b6000808573ffffffffffffffffffffffffffffffffffffffff1673ffffffffffffffffffffffffffffffffffffffff1681526020019081526020016000208190555081600260008282546111b7919061180a565b92505081905550600073ffffffffffffffffffffffffffffffffffffffff168373ffffffffffffffffffffffffffffffffffffffff167fddf252ad1be2c89b69c2b068fc378daa952ba7f163c4a11628f55a4df523b3ef8460405161121c9190611762565b60405180910390a3505050565b505050565b60008135905061123d81611cf5565b92915050565b60008135905061125281611d0c565b92915050565b60006020828403121561126a57600080fd5b60006112788482850161122e565b91505092915050565b6000806040838503121561129457600080fd5b60006112a28582860161122e565b92505060206112b38582860161122e565b9150509250929050565b6000806000606084860312156112d257600080fd5b60006112e08682870161122e565b93505060206112f18682870161122e565b925050604061130286828701611243565b9150509250925092565b6000806040838503121561131f57600080fd5b600061132d8582860161122e565b925050602061133e85828601611243565b9150509250929050565b60006020828403121561135a57600080fd5b600061136884828501611243565b91505092915050565b61137a8161183e565b82525050565b61138981611850565b82525050565b600061139a82611798565b6113a481856117a3565b93506113b4818560208601611893565b6113bd81611956565b840191505092915050565b60006113d56023836117a3565b91506113e082611967565b604082019050919050565b60006113f86022836117a3565b9150611403826119b6565b604082019050919050565b600061141b6022836117a3565b915061142682611a05565b604082019050919050565b600061143e6026836117a3565b915061144982611a54565b604082019050919050565b6000611461602b836117a3565b915061146c82611aa3565b604082019050919050565b60006114846028836117a3565b915061148f82611af2565b604082019050919050565b60006114a76021836117a3565b91506114b282611b41565b604082019050919050565b60006114ca6025836117a3565b91506114d582611b90565b604082019050919050565b60006114ed6024836117a3565b91506114f882611bdf565b604082019050919050565b6000611510602d836117a3565b915061151b82611c2e565b604082019050919050565b60006115336025836117a3565b915061153e82611c7d565b604082019050919050565b6000611556601f836117a3565b915061156182611ccc565b602082019050919050565b6115758161187c565b82525050565b61158481611886565b82525050565b600060208201905061159f6000830184611371565b92915050565b60006020820190506115ba6000830184611380565b92915050565b600060208201905081810360008301526115da818461138f565b905092915050565b600060208201905081810360008301526115fb816113c8565b9050919050565b6000602082019050818103600083015261161b816113eb565b9050919050565b6000602082019050818103600083015261163b8161140e565b9050919050565b6000602082019050818103600083015261165b81611431565b9050919050565b6000602082019050818103600083015261167b81611454565b9050919050565b6000602082019050818103600083015261169b81611477565b9050919050565b600060208201905081810360008301526116bb8161149a565b9050919050565b600060208201905081810360008301526116db816114bd565b9050919050565b600060208201905081810360008301526116fb816114e0565b9050919050565b6000602082019050818103600083015261171b81611503565b9050919050565b6000602082019050818103600083015261173b81611526565b9050919050565b6000602082019050818103600083015261175b81611549565b9050919050565b6000602082019050611777600083018461156c565b92915050565b6000602082019050611792600083018461157b565b92915050565b600081519050919050565b600082825260208201905092915050565b60006117bf8261187c565b91506117ca8361187c565b9250827fffffffffffffffffffffffffffffffffffffffffffffffffffffffffffffffff038211156117ff576117fe6118f8565b5b828201905092915050565b60006118158261187c565b91506118208361187c565b925082821015611833576118326118f8565b5b828203905092915050565b60006118498261185c565b9050919050565b60008115159050919050565b600073ffffffffffffffffffffffffffffffffffffffff82169050919050565b6000819050919050565b600060ff82169050919050565b60005b838110156118b1578082015181840152602081019050611896565b838111156118c0576000848401525b50505050565b600060028204905060018216806118de57607f821691505b602082108114156118f2576118f1611927565b5b50919050565b7f4e487b7100000000000000000000000000000000000000000000000000000000600052601160045260246000fd5b7f4e487b7100000000000000000000000000000000000000000000000000000000600052602260045260246000fd5b6000601f19601f8301169050919050565b7f45524332303a207472616e7366657220746f20746865207a65726f206164647260008201527f6573730000000000000000000000000000000000000000000000000000000000602082015250565b7f45524332303a206275726e20616d6f756e7420657863656564732062616c616e60008201527f6365000000000000000000000000000000000000000000000000000000000000602082015250565b7f45524332303a20617070726f766520746f20746865207a65726f20616464726560008201527f7373000000000000000000000000000000000000000000000000000000000000602082015250565b7f45524332303a207472616e7366657220616d6f756e742065786365656473206260008201527f616c616e63650000000000000000000000000000000000000000000000000000602082015250565b7f4572726f722c206d73672e73656e64657220646f6573206e6f7420686176652060008201527f6d696e74657220726f6c65000000000000000000000000000000000000000000602082015250565b7f45524332303a207472616e7366657220616d6f756e742065786365656473206160008201527f6c6c6f77616e6365000000000000000000000000000000000000000000000000602082015250565b7f45524332303a206275726e2066726f6d20746865207a65726f2061646472657360008201527f7300000000000000000000000000000000000000000000000000000000000000602082015250565b7f45524332303a207472616e736665722066726f6d20746865207a65726f20616460008201527f6472657373000000000000000000000000000000000000000000000000000000602082015250565b7f45524332303a20617070726f76652066726f6d20746865207a65726f2061646460008201527f7265737300000000000000000000000000000000000000000000000000000000602082015250565b7f4572726f722c206f6e6c79206f776e65722063616e206368616e67652070617360008201527f73206d696e74657220726f6c6500000000000000000000000000000000000000602082015250565b7f45524332303a2064656372656173656420616c6c6f77616e63652062656c6f7760008201527f207a65726f000000000000000000000000000000000000000000000000000000602082015250565b7f45524332303a206d696e7420746f20746865207a65726f206164647265737300600082015250565b611cfe8161183e565b8114611d0957600080fd5b50565b611d158161187c565b8114611d2057600080fd5b5056fea26469706673582212200bcc2bd744bb01dd155ea93504cfa49efc52dad5b294806d4743c86a5d2e9c5c64736f6c63430008040033",
  "immutableReferences": {},
  "source": "// SPDX-License-Identifier: MIT\r\npragma solidity >=0.6.0 <0.9.0;\r\n\r\nimport \"@openzeppelin/contracts/token/ERC20/ERC20.sol\";\r\n\r\ncontract Security is ERC20 {\r\n    address public minter;\r\n    \r\n    event MinterChanged(address indexed from, address to);\r\n    \r\n    constructor(string memory _name, string memory _symbol) payable ERC20(_name, _symbol) {\r\n    minter = msg.sender; //only initially\r\n    }\r\n    \r\n    function passMinterRole(address dBank) public  returns (bool) {\r\n      require(msg.sender==minter, 'Error, only owner can change pass minter role');\r\n      minter = dBank;\r\n      emit MinterChanged(msg.sender, dBank);\r\n      return true;\r\n    }\r\n    \r\n    function mint(address account, uint256 amount) public {\r\n    \trequire(msg.sender==minter, 'Error, msg.sender does not have minter role');\r\n    \t_mint(account, amount);\r\n    }\r\n    \r\n    function burn(uint256 amount) public{\r\n        require(msg.sender==minter, 'Error, msg.sender does not have minter role');\r\n        _burn(msg.sender, amount);\r\n    }\r\n\t\r\n\tfunction approve(address spender, uint256 amount) public override returns (bool){\r\n\t    _approve(tx.origin, spender, amount);\r\n\t    return true;\r\n\t}\r\n\r\n}",
  "sourcePath": "C:/Users/MARCHEL/Documents/uni stuff/internship/prototypr 2/cbdc/src/contracts/Security.sol",
  "compiler": {
    "name": "solc",
    "version": "0.8.4+commit.c7e474f2.Emscripten.clang"
  },
  "schemaVersion": "3.3.4",
  "updatedAt": "2021-05-06T08:09:39.814Z",
  "devdoc": {
    "kind": "dev",
    "methods": {
      "allowance(address,address)": {
        "details": "See {IERC20-allowance}."
      },
      "approve(address,uint256)": {
        "details": "See {IERC20-approve}. Requirements: - `spender` cannot be the zero address."
      },
      "balanceOf(address)": {
        "details": "See {IERC20-balanceOf}."
      },
      "decimals()": {
        "details": "Returns the number of decimals used to get its user representation. For example, if `decimals` equals `2`, a balance of `505` tokens should be displayed to a user as `5,05` (`505 / 10 ** 2`). Tokens usually opt for a value of 18, imitating the relationship between Ether and Wei. This is the value {ERC20} uses, unless this function is overloaded; NOTE: This information is only used for _display_ purposes: it in no way affects any of the arithmetic of the contract, including {IERC20-balanceOf} and {IERC20-transfer}."
      },
      "decreaseAllowance(address,uint256)": {
        "details": "Atomically decreases the allowance granted to `spender` by the caller. This is an alternative to {approve} that can be used as a mitigation for problems described in {IERC20-approve}. Emits an {Approval} event indicating the updated allowance. Requirements: - `spender` cannot be the zero address. - `spender` must have allowance for the caller of at least `subtractedValue`."
      },
      "increaseAllowance(address,uint256)": {
        "details": "Atomically increases the allowance granted to `spender` by the caller. This is an alternative to {approve} that can be used as a mitigation for problems described in {IERC20-approve}. Emits an {Approval} event indicating the updated allowance. Requirements: - `spender` cannot be the zero address."
      },
      "name()": {
        "details": "Returns the name of the token."
      },
      "symbol()": {
        "details": "Returns the symbol of the token, usually a shorter version of the name."
      },
      "totalSupply()": {
        "details": "See {IERC20-totalSupply}."
      },
      "transfer(address,uint256)": {
        "details": "See {IERC20-transfer}. Requirements: - `recipient` cannot be the zero address. - the caller must have a balance of at least `amount`."
      },
      "transferFrom(address,address,uint256)": {
        "details": "See {IERC20-transferFrom}. Emits an {Approval} event indicating the updated allowance. This is not required by the EIP. See the note at the beginning of {ERC20}. Requirements: - `sender` and `recipient` cannot be the zero address. - `sender` must have a balance of at least `amount`. - the caller must have allowance for ``sender``'s tokens of at least `amount`."
      }
    },
    "version": 1
  },
  "userdoc": {
    "kind": "user",
    "methods": {},
    "version": 1
  }
}